:020000041000EA
:10000000002008205D0100101301001015010010F0
:100010001101001011010010110100101101001058
:100020001101001011010010110100101701001042
:100030001101001011010010190100101B01001026
:100040001D0100101D0100101D0100101D010010F8
:100050001D0100101D0100101D0100101D010010E8
:100060001D0100101D0100101D0100101D010010D8
:100070001D0100101D0100101D0100101D010010C8
:100080001D0100101D0100101D0100101D010010B8
:100090001D0100101D0100101D0100101D010010A8
:1000A0001D0100101D0100101D0100101D01001098
:1000B0001D0100101D0100101D0100101D01001088
:1000C0001D0100101D0100101D0100101D01001078
:1000D0001D0100101D0100101D0100101D01001068
:1000E0001D0100101D0100101D0100101D01001058
:1000F0001D0100101D0100101D0100101D01001048
:100100001D0100101D0100101D0100101D01001037
:1001100000BE00BE00BE00BE00BE00BEEFF3058004
:10012000103800BEF2EB8871F84B0010244C001020
:10013000A801001090A31AE7D3DEFFFF42012110AF
:10014000FF010000E4580000793512AB4FF00000C9
:100150002049086006C881F3088810474FF05040D6
:10016000006810B14FF00000F2E70FA40ECC002998
:1001700002D000F015F8F9E71749184A002000E00E
:1001800001C19142FCD1002080F30A8814498847BC
:10019000144988471449884700BEFDE701C901C2D8
:1001A0009A42FBD3704700BF244C0010100100207E
:1001B000080F00201C5A0010000008200000082032
:1001C0001C5A001000100820001008200000000039
:1001D0007047000008ED00E0080F0020541E0020CA
:1001E000C91900100D020010C1190010F8B500BFA8
:1001F00008B5034B1BB103490348AFF3008008BDAA
:1002000000000000DC1D0020444800102DE9F843E8
:10021000194E01F0D1FC4FF00105344606F10109F9
:1002200006F1100814F8010F00F048F8237845ECA7
:1002300044304445F6D14FF001074FF0000509F175
:100240000109344614F8013F47EC4030322000F0F9
:1002500077FF237845EC40304445F3D1074C14F840
:10026000013D47EC4030322000F06AFF237845EC36
:1002700040304C45F3D1E4E7370E0020490E002012
:1002800010B44FF480740C4B53F8202003EB800320
:10029000C00082F0400200F1804003F5805C02F073
:1002A000C00200F5203003F54053CCF80020416037
:1002B0001C605DF8044B70470480034030B44FF07D
:1002C000000343EC440043EC400005254FF48074E8
:1002D0000B4BC20053F8201003EB800081F040016B
:1002E00002F1804303F5203301F0C00200F5805194
:1002F00000F540500A605D60046030BC704700BF8C
:10030000048003400FB400B583B0049C074801F09B
:100310009DFC3CB105A92046019101F037FB044842
:1003200001F094FC012001F049FB00BF444800109B
:100330005448001070B58646EFF3108572B6124C23
:10034000D4E8CF6F0120002EFAD1C4E8460F002E6A
:10035000F6D1BFF35F8F4FF0010CC80801F007031F
:100360000CFA03F31EF800C01CEA030608D14CEA9D
:10037000030C0EF800C0C4E88F6F85F3108870BDC1
:100380001046FFF7BFFF00BF17150020F8B5EFF3C9
:10039000108772B61C4ED6E8CF5F0124002DFAD12B
:1003A000C6E8454F002DF6D1BFF35F8F9A421BD8A8
:1003B000012502E00132934222D3D40810F804E070
:1003C00002F0070C05FA0CFC1EEA0C0FF2D14EEA03
:1003D0000C0E00F804E010460023C6E88F3F87F3B8
:1003E0001088984207DBF8BD0023C6E88F3F87F3EB
:1003F00010884FF0FF300029F5D00698FFF782FFF4
:100400004FF0FF30E8E700BF17150020044A1078CE
:10041000431CDBB2182B28BF10231370704700BF9A
:10042000480E002010B5054C82B001461F2318224B
:1004300000940348FFF7AAFF02B010BD584800100F
:100440006C1900204FF0E022936843F00053936052
:10045000704700BF0021044B03F12002C3E88F1F47
:1004600001339342FAD170470C1500204FF0E0237E
:100470004FF08032C3F80024C3F80424C3F80824E2
:10048000C3F80C24C3F81024C3F81424C3F81824A8
:10049000C3F81C24C3F82024C3F82424C3F8282458
:1004A000C3F82C24C3F83024704700BF012300F0A8
:1004B0001F029340400941B1800000F1604000F507
:1004C0006140C0F8803103607047024A203042F832
:1004D0002030704700E100E00123064A410952F84C
:1004E000212000F01F0003FA00F01040003818BF70
:1004F0000120704700E100E001224309034900F0B8
:100500001F008240403341F82320704700E100E0A3
:10051000064B10309B6853F8200028B1044BC01ADA
:100520002F288CBF00200120704700BF00ED00E0A5
:100530004C0E0020F8B50D46EFF3108772B6124E40
:10054000D6E8CF2F0123002AFAD1C6E8423F002A7D
:10055000F6D1BFF35F8F0D4B00F110049B680C4A7E
:1005600053F82430934203D0994201D001F01AF994
:10057000064B9B6843F82450BFF35F8F0023C6E807
:100580008F3F87F31088F8BD1515002000ED00E0BF
:100590001D0100102DE9F04F81468B46164683B0B1
:1005A000EFF3108372B6DFF8D0A10093DAE8CF1F23
:1005B00001230029FAD1CAE8413F0029F6D1BFF34F
:1005C0005F8F664B93F90040002CC0F2A080644D11
:1005D00004EB440705EB870898F8061009F11009A9
:1005E0001970604BBF009B6853F829006300411BE2
:1005F0002F292FD95C49884240F0A4801C445B4BD2
:1006000002372F44043BDB1BC3F34A036FEAC343A7
:100610004FF421416FEAD34325F8241005EB8404FD
:1006200063804BF60153A380FF2348F00100E6717D
:10063000C4F808B0A3714B4B9B6843F82900BFF383
:100640005F8F0023CAE88F3F009B83F3108803B0BD
:10065000BDE8F08F20F0010E9EF80710B1422ED8B1
:100660004FF42143EB53414BB91C2944043B04375D
:100670005B1A2F44AEF10401C91BC1F34A043C4983
:10068000C3F34A030B432143A8F804103949A8F8DF
:1006900002304AF6AA2073465B1B5B415843000DAB
:1006A00088F8076088F80600C8F808B048F001002C
:1006B000CEF80010BFE7D179B1422ED996469EF907
:1006C00006C00CEB4C02BCF1000F05EB8202F2DA23
:1006D0004BF601510EF10402A8F10407BF1AC7F34B
:1006E0004A076FEAC7476FEAD7478EF8064003EB21
:1006F0000408204C05EB8803AEF8047045F8284048
:10070000998083F806C0DE71C3F808B093E701F062
:1007100049F8124B93F9004059E7724632F8041F2A
:10072000490514D44915023102EB410101916FF0E2
:100730000701C91B019F491B3944C1F34A0141F418
:100740006041C9E7019301F02DF8019B56E701F5DF
:10075000FF1101F5FF511F31E4E700BF4C1E0020DF
:100760004C0E002000ED00E01D0100107C0E00206A
:1007700000E0FFFF01488047151500202DE9F04FEC
:1007800083B0EFF3108A72B6714ED6E8CF2F0123F3
:10079000002AFAD1C6E8423F002AF6D1BFF35F8FA4
:1007A0006C4B00F110089B686B4A53F82850954237
:1007B00045D08D420C4650D0684FEB1B2F2B3ED8B6
:1007C00001214FEA50194FEA890909F1604909F5F9
:1007D000614900F01F0301FA03F0D9F80030C9F8AD
:1007E000800000EA030BBFF35F8FEFF30581C9B20E
:1007F000002934D0884505D0CDE9001000F0D2FFA3
:10080000DDE9001025F0010EDEF808C0644505D1D1
:1008100089E0D3F808C0644531D09E469EF9062091
:1008200002EB4203002A07EB8303F2DA644561D04E
:10083000BBF1000F20D0C9F88001C9F80000454B7A
:100840009B6843F82850BFF35F8F0023C6E88F3FB3
:100850008AF3108803B0BDE8F08F1546EFE725F066
:10086000010EDEF808C06445D8D19EF906407346F3
:10087000002C08DA154646E0C9F88000DFE793F956
:100880000640002C37DB04EB440C07EB8C0C9CF887
:100890000710DCF80820D9719A609CF906206100E5
:1008A000002A9A713DDBBCF804E05FEA4E5E05D594
:1008B0000EF5FF1E0EF5FF5E0EF11F0E6FF0070C1A
:1008C0000A194FEA6E5E920002EB4E0208323A4479
:1008D000ACEB030C6244C2F34A026FEAC2426FEA15
:1008E000D2429A801E4B21441A7807EB81011C707A
:1008F0008A719DE77346D9B9FF228EF806204BF620
:100900000152AEF80420164C4AF6AA2294F800C010
:100910001946C91B49414A43120D83F806C022708B
:1009200086E7104ADDE79EF906407346002CAADAF6
:100930000D4A0E4CD21A083AC2F30A316FEA01513D
:100940006FEA115144EA5202DA80998070E700BFE1
:100950001515002000ED00E01D0100104C0E0020D8
:100960004C1E002001BDFFFF860E002000F8FFFF97
:10097000F0B5EFF30585EDB2EFF3108C72B62649B2
:10098000D1E8CF2F0123002AFAD1C1E8423F002A43
:10099000F6D1BFF35F8F214E40F0010EB4684AF6E6
:1009A000AA2354F825701E4A0446A41A64416343DE
:1009B0001B0D77455BB21BD092F906409C421CD0C0
:1009C00092F912409C4223D092F91E409C4221D0C1
:1009D00092F92A409C4208BF03240FD0114A0024F8
:1009E000157813708571C1E88F4F8CF31088F0BDB6
:1009F000B2680D4C42F82540F0E7002404EB4404B3
:100A000002EB8402FF2494714BF601549480E5E7D5
:100A10000124F3E70224F1E71515002000ED00E0C2
:100A20004C0E00204C1E00201D01001010B5074C7C
:100A300082B001460523002200940548FFF7A6FC7A
:100A40000028A8BFC0F1330002B010BD74480010E8
:100A5000501E0020014B0B44036070470C15002012
:100A600070B5104C104DAC420ED2FF26236863B116
:100A7000FFF7CCFC01462046FFF7ECFFA680BFF352
:100A80005F8F0834AC42F1D370BDFFF7BFFC014665
:100A90002046FFF7DFFF2671BFF35F8F0834AC42BB
:100AA000E4D370BD000F0020080F002010B50446ED
:100AB000FFF7ACFC01462046FFF7CCFFFF23237174
:100AC000BFF35F8F10BD00BF10B504460120FFF7D4
:100AD000A9FC034B03442360BFF35F8F10BD00BF2D
:100AE0000C150020024B0B440360BFF35F8F70476F
:100AF0000C1500200D4B1A68EFF3108172B6D2E886
:100B0000CFCF0120BCF1000FF9D1C2E84C0FBCF1EE
:100B1000000FF4D1BFF35F8F00221B68C3E88F2F53
:100B200081F3108840BF002000217047241E002060
:100B30002DE9F04F2DED028B85B0EFF30583DBB28D
:100B4000103B9A0818BF01224FF0010103F0030087
:100B500018BFAB4DAB4B08BFAB4D00EB820201FAA7
:100B600000FB53F8226005F541539FEDA38B0190E4
:100B7000C3F804B0CDF800B02AE0B3881C0440F1FB
:100B80008C80B379002B40F0D580B6F90820002A7C
:100B9000C0F21581736902EB420203EBC203D3E991
:100BA0000247B7F1FF3F08BFB4F1FF3F09D0019BF7
:100BB00005EB8301AB6A0A69D21AE31A934238BF84
:100BC0000C61284600F0AAFBA042B941C0F2F780B0
:100BD000B6F90840009B002CEB63CEDBD6F81490EE
:100BE00004EB440A284609EBCA07D7E902B800F02B
:100BF00095FB584571EB0801BFDBB8F1000FC0F25F
:100C0000C180D7E90431814A934200F0EA807A88B2
:100C1000B6F9080092B242EA0040984702460B46F5
:100C200052EA030100F0AE80002B80F2CE80BBEBD5
:100C3000020B68EB030839F93A30C7E902B8002B18
:100C40009BDB716903EB430201EBC202D2E9027044
:100C5000BB4578EB000C4FEA43028EDBB4462CF820
:100C6000083F06E003EB430001EBC0005A00D0E967
:100C70000270BB451A4478EB000001EBC20E04DBA6
:100C800031F93230F446002BECDA29F83A30ACF87E
:100C90000040B3881C043FF574AF3369EFF3108252
:100CA00072B6D3E8CF0F01210028FAD1C3E8401F64
:100CB0000028F6D1BFF35F8F4FF6FF74B088002392
:100CC000316900B2B480C1E88F3F82F31088984246
:100CD000FFF657AF0746A946746906F1080807EB07
:100CE000470E04EBCE03D3E90250B6F90830C446F0
:100CF000002BA8BFB34605DA0FE034F93A3094462A
:100D0000002B09DB03EB430A04EBCA02D2E90261C0
:100D1000B54270EB0101F0DA5E46ACF8007034F9D0
:100D20003E7024F83E30002FD9DAB3794D46002BBF
:100D30003FF42BAF0023B371B6F9083006F1080871
:100D4000581C3CD01A46776903E08046591C3FF492
:100D50001EAF03EB430107EBC100B0F802C01C4615
:100D60001CF4004F9E4637F93130EED0944280EDAE
:100D7000028B05D0A8F80030328927F83120348161
:100D80007246E3E739F83A3033813369EFF3108282
:100D900072B6D3E8CF0F01210028FAD1C3E8401F73
:100DA0000028F6D1BFF35F8F7388316929F83A3094
:100DB00000237480C1E88F3F82F31088DDE640BFD6
:100DC00005B0BDEC028BBDE8F08F2846CDE90223CB
:100DD00000F0A4FA029A039B10EB020B43EB01080C
:100DE00029E708460B69029198470028CAD0029962
:100DF000D1E9002314E700BFFFFFFFFFFFFFFFFF64
:100E000000800B40FC1D002000000B40310B001047
:100E10002DE9F84F364C25692DB1BDE8F84F0A2170
:100E20003448FFF717BEDFF8E4800321404600F0A6
:100E300063FA0326C4F80C80FFF7E8FA4FF0504C31
:100E40002D4B267003442361DCF800300F216370C2
:100E5000636961801D834FF00405A3F878504FF05B
:100E60000505A3F890504FF00605A3F8A8504FF0E1
:100E700007050E214FF6FF7208274FF00A0EA3F860
:100E8000C0504FF001094FF00C0C4FF0020B4FF027
:100E9000090A0D204FF00B05A3F868111749A2802D
:100EA000A3F808E1A160A3F848B0A3F8F0A0A3F864
:100EB0002051A3F838C1A3F85001A3F83090A3F84B
:100EC0006060A3F8D8701A800D4B3046C8F82070C7
:100ED0000C49DC60FFF72EFB49463046FFF7E6FA87
:100EE000094B0A211F640348BDE8F84FFFF7B2BD64
:100EF000940E0020241E00200C150020FFFF10007F
:100F0000FC1D0020310B001000200B4000000B40A6
:100F100000487047940E0020F8B59DF82050044614
:100F200017461E4635B900F001FA874266EB01010B
:100F300000295CDB2169EFF3108372B6D1E8CF0F93
:100F400001220028FAD1C1E8402F0028F6D1BFF3D2
:100F50005F8FB4F90220656902EB4201002A4FEA73
:100F6000C10C206905EBC10139DB35F80CE0A4F8B0
:100F700002E04FF0000EC0E88FEF83F3108848883E
:100F8000069B0130C0F30E00012838BF01200B6121
:100F9000079B48804B61C1E9027640EA0240236921
:100FA000EFF3108172B6D3E8CF7F0126002FFAD17C
:100FB000C3E8476F002FF6D1BFF35F8FA38825F8F2
:100FC0000C30A2802369C3E88FEF81F310880122DF
:100FD000E368217803F501538A405A60F8BD002286
:100FE000C0E88F2F83F310884FF0FF30F8BD2846FC
:100FF000F8BD00BF0146F0B50069EFF3108772B687
:10100000D0E8CF5F0124002DFAD1C0E8454F002D74
:10101000F6D1BFF35F8FB1F902E04C690EEB4E0CD5
:10102000BEF1000F4FEACC05086904EBCC0C3CDBA9
:10103000665B4E800026C0E88F6F87F31088BCF88F
:101040000200CCE902230130C0F30E00012838BFB2
:101050000120059BACF80200CCF81030069B40EA5A
:101060000E40CCF814300B69EFF3108272B6D3E85F
:10107000CFCF0127BCF1000FF9D1C3E84C7FBCF101
:10108000000FF4D1BFF35F8F8B886353A1F804E0A6
:101090000B69C3E88F6F82F310880122CB6809784F
:1010A00003F501538A405A60F0BD0023C0E88F3F2A
:1010B00087F310884FF0FF30F0BD00BF0346408932
:1010C000B0EB214F37DD58690A1402EB420210B52C
:1010D00000EBC2001C69EFF3108C72B6D4E8CFEFBE
:1010E0000122BEF1000FF9D1C4E84E2FBEF1000F6E
:1010F000F4D1BFF35F8F428889B292B28A4207D09F
:1011000000221B69C3E88F2F8CF31088002010BDCC
:1011100042F4004242800121002218699971C0E81E
:101120008F2F8CF310881C78DA68084602F501537B
:10113000A140596010BD0020704700BF4078704743
:101140002DE9F04182B0064600F0F0F84FF47A73D2
:1011500004464FF0FF306FF00042E6FB0341A0422F
:1011600072EB01033ABF044615460D46A61F45F132
:10117000FF37B44275EB07033CBF0026374600F04B
:10118000D5F8301A67EB0101012871F1000106DA88
:101190002046294602B0BDE8F04100F0FFB800F05B
:1011A000C5F8864267EB010100290ADB0021174BD5
:1011B0003246009316483B460191FFF71BFF013072
:1011C000E6D04FF0000C134A1349536A9F4204D8EB
:1011D000906AB042DCD29F42DAD10B68EFF3108004
:1011E00072B6D3E8CF8F5FF0010EB8F1000FF8D1DF
:1011F000C3E848EFB8F1000FF3D1BFF35F8F0B687E
:10120000C3E88FCF80F3108820BFDEE7F50A001017
:10121000940E002000000B40241E0020F0B506466E
:101220000D4683B0EFF30584E4B2002C3CD12F4F80
:101230003A78F96804328B6A51F82220D21AC31A1C
:10124000934207D320BF2A4B5A6AAA4221D20020D8
:1012500003B0F0BD00F06AF8864265EB0101002999
:1012600031DB244B3846CDE9003432462B46FFF7BC
:10127000C1FE011E27DD1E4B5A6AAA4233D39B6A68
:101280009E422ED81948FFF719FF194B5A6AAA42F5
:10129000DDD314BF012400249B6A9E428CBF2046EC
:1012A00044F0010003B0F0BD114B5A6A8A42CED31C
:1012B00014BF012400249B6A834234BF204644F0BB
:1012C000010003B0F0BD0A4B5C6AAC42BFD3641BA3
:1012D00018BF01249B6A9E428CBF204644F0010047
:1012E000B6E7AA42CED120BFCCE700BF940E0020C3
:1012F00000000B40F50A001010B4054B054C064ADF
:10130000A04214BF1846581C5DF8044BFFF712B8F2
:101310007019002000800B40904800100346416A7D
:101320000A46986A596A8A42FAD17047034B596A49
:101330000A46986A596A9142FAD1704700000B40F8
:1013400030B4154A536A9C46946A536A6345FAD18D
:10135000021959414FF0000528BF01250E4B5B6A69
:10136000B5B15A1C08BF1A4608D04FF0FF310A46E3
:101370000948436A8B42FCD38B4207D1064902E0FD
:10138000486A984202D1886A9042F9D330BC7047CB
:101390009942EDD8F0E700BF00000B40074A536ABE
:1013A0009942FCD8994207D1044B02E05A6A914213
:1013B00002D19A6A9042F9D8704700BF00000B40F2
:1013C000F8B5054606200E4600F0E4F8002842D0A5
:1013D000354A3648954214BF4FF080624FF00062A4
:1013E000334B344902601A608C6832EA0404FBD142
:1013F0002D4B4FF48071EB1AB3FA83F32E4A5B093D
:10140000062022F8131000F0C5F8C300B3FBF6F372
:101410000133DA0920D1402601216962AA622F6BCB
:10142000FB0722D42B46002253F82C1F062003F57D
:10143000805422602F6300F0ADF840F201310322A6
:101440008000B0FBF6F0EB6A83F0700303F07E03DC
:1014500023602963AA64F8BD4FF6FE718A421BD946
:1014600022464FF6FF71154ED7E740F2013205F5DF
:1014700040531A636B6AAC6A062004EB831400F0D5
:1014800089F80F4BA402A3FB0023DB0A0021B4FB65
:10149000F3F0FFF755FFC5E7C3F34503114603EB30
:1014A00082161A46B9E700BF0080074000200240BC
:1014B0000030024000000240301E0020C0FF3F000C
:1014C000757B2B8F00EB400C4FEA8C0C0CF1804CA1
:1014D0000CF5803CF0B51646DCF80420051FB2F58B
:1014E000803F38BF4FF48032EDB238BFCCF80420D3
:1014F000012D2AD94FF40067254C0CF54052176096
:1015000054F82020B2B9DCF80020012D82EA4612FE
:1015100002F0E0020CF5805632602AD94FF40061E7
:1015200044F820304FF480330CF500521160CCF8B1
:101530000430F0BD6769B7FBF2FE0EF1010E0EEB51
:101540004E0EBEF1030EFCD2DDE70129D2D10324F9
:101550000CF540521460DCF80820D207FBD5DCF80B
:1015600000200B4C82EA461202F0E0020CF5805695
:1015700032600122DCF800504D4005F00305356073
:1015800002FA01F1DCF808200A42FBD0C6E700BFEE
:1015900074190020014B53F8200070477419002083
:1015A00070B4039D04682D0345EA03451B4B002CD2
:1015B000B3FBF1F3B2FBF3F61FDB194A194B904270
:1015C00014BF4FF480424FF40042174C1A6003F5E9
:1015D00080531A60A36832EA0303FBD1212200F58D
:1015E00040530433016086601A600268002AFCDA06
:1015F0000822C5601A6070BC7047036803F03F039F
:101600008B42DAD18368C3F30B03B342D5D1C368ED
:1016100003F4EE23AB42D0D1EDE700BF001BB700CF
:1016200000800540002002400000024030B44FF02E
:1016300080441C4B1C60E0B11B4CA3F54053DC61A3
:101640001A4C40F0010044401C62596298624FF00D
:1016500080454FF0E061134B1548164C1D608460C7
:1016600019604AB930BC4FF00042A3F580531A60AC
:101670007047114BD861EAE74FF47A7303FB02F22B
:10168000B2F1807F2ABF6FF07F4313461A464FF0B6
:1016900080410A4C08482360094B426030BC196005
:1016A000704700BF00B00D40D3C007B02D3FF84FCA
:1016B00000A00140F3FFFF0100800D40D41D002079
:1016C00000A00D40012300EB4000800000F18040AD
:1016D00000F5841041600360704700BF002370B5BF
:1016E000DB8A04460D46002242E800F2520254BF53
:1016F0001021042144F25220984786462B46224668
:10170000F446BDE870400A214FF48170604700BF85
:101710000023DB8A002242E800F2520201D41021A9
:1017200018470421184700BF08B503460846191E8C
:1017300002DB1AB140F03000FFF7D0FF40F020008C
:10174000FAE700BF034AD2F82838002BFBD0BFF3DA
:101750005F8F704700000E400021044B044ABFF326
:101760005F8F43F8041B9342F9D170470C080E4079
:101770002C080E4010B42F204FF42A64054A064B63
:1017800006491460D06019605368002BFCDA5DF8DC
:10179000044B70470080044000A0044000B0FA00F1
:1017A000704700BF08B50148FEF7ACFDB448001013
:1017B00038B5054C054DAC4204D254F8043B98476B
:1017C000AC42FAD338BD00BFF847001038480010CB
:1017D00010B40748074C084B084A094904601A60CE
:1017E0008B6832EA0303FBD15DF8044B704700BFFE
:1017F000002002407F3BEFEF00300240F6FFF30392
:1018000000000240044BDB6CB3F5004F03D14FF4F2
:101810008022024BDA647047000011500020115002
:101820004FF0E022044BD2F8881D0B43C2F8883DEC
:1018300010EE3004704700BF030330006FF06041CA
:10184000044B054A19609368DB4333F06043FAD1D7
:10185000704700BF003002400000024010B545F262
:101860005320FFF755FFBDE81040034604201847FA
:1018700010B545F25320FFF74BFFBDE8104003467B
:1018800001201847FEF7E6BD10B5054B054C4FF497
:1018900088721846A16802F099FEA06010BD00BFD2
:1018A0000000002000ED00E0002370B52B4C82B05A
:1018B000C4F88430FFF75EFF0122294BDA63636CC2
:1018C000012BFCD10321264A244B11639C6B012C74
:1018D000FCD10226052521460523224A22480096EE
:1018E000FFF75EFE21462B46204A21480095FFF770
:1018F00057FE0022042031461E4BFFF7E3FD214630
:10190000284600221C4BFFF7DDFD0022082011466F
:101910001A4BFFF7D7FD002209201146174BFFF79E
:10192000D1FD002206201146134BFFF7CBFD00220C
:10193000114B07201146FFF7C5FD0420FFF72AFED3
:1019400000240F4BA3FB0035AD0CE0B22946013457
:10195000FFF7B8FE062CF8D102B070BD00000140C0
:1019600000300140002F685900000540008C864778
:1019700000800540001BB70080D1F008006CDC023D
:1019800083DE1B4300B9704700F01EB910B5094B48
:1019900084B01C684CB1034600914FF0FF3203A99C
:1019A0000548A047012004B010BD00F04FF92046C3
:1019B00004B010BDD01D00208519001000BEFDE749
:1019C00008B5FFF7FBFF00BF38B5064C064DFFF723
:1019D000EFFEAC4204D254F8043B9847AC42FAD331
:1019E00038BD00BF3848001044480010036808465E
:1019F000114618472DE9F0411546427D07468846B5
:101A0000002A46D0002D1DDD0B780A2B23D0012D96
:101A10004FF0000C18D04646012416F8012F21463D
:101A20000A2A04F1010422D0A542F6D165450BDC57
:101A300008EB050313F8013CA3F10D03B3FA83F39C
:101A40005B093B75BDE8F0813B68A5EB0C0108EB39
:101A50000C009847ECE7037D002BD8D103680221E6
:101A60000F489847012DE3D04FF0010CD3E716F84B
:101A7000013C0D2BD8D08C4508EB0C00A1EB0C01E0
:101A800001DA3B689847022105483B689847A4461D
:101A9000CAE7294640463B68BDE8F041184700BF09
:101AA000184A00102DE9F04782B00D4691461C46B9
:101AB0000646FFF73BFC4FF0FF3C6FF000472E4A15
:101AC000821841F10003944577EB03013CBF624665
:101AD0003B462A4802F084FE6B1C804640D00CB383
:101AE000274F284B1C68B4B1B9F1000F1CD1DFF8A7
:101AF0009C9001E0246974B12368002BFAD0D9F8D6
:101B000000300BB19C42F5D120462A463146B847F9
:101B10002469002CF0D1B8F1000F26D1284602B07C
:101B2000BDE8F087184FDCE74FF00A0ADFF85C9059
:101B300002E02469002CEED02368002BF9D0D9F8FC
:101B400000300BB1A342F4D12A4631462046B847B3
:101B5000012220460DF107018DF807A0B847E8E7FC
:101B6000304602F0A9FD0546B9E7044802F02CFE14
:101B7000284602B0BDE8F08740420F00000F002069
:101B8000F5190010C4190020ED190010CC1900201F
:101B9000084A136823B90AE003F110021B6933B144
:101BA0008342F9D129B9186910601961704701B1F0
:101BB00010607047C419002008B500F035F900F036
:101BC0006BFB012008BD00BFF0B583B006468DF861
:101BD0000700FFF7ABFB4FF0FF356FF00044174AEB
:101BE000821841F10003954274EB03013CBF234688
:101BF0002A46134802F0F4FD124B07461C689CB1BC
:101C0000114D01E024697CB12368002BFAD02B68C8
:101C10000BB19C42F6D1204601220DF10701FFF7DE
:101C2000E9FE2469002CEFD117B9304603B0F0BDAE
:101C3000034802F0C9FD304603B0F0BD40420F003A
:101C4000000F0020C4190020CC19002038B504462C
:101C500002F032FD012305461A4620462946FFF7C9
:101C600021FF084B1C682CB163682BB1984724698D
:101C7000002CF9D1284638BD2469002CF4D128461F
:101C800038BD00BFC4190020B1F1000C1DDD0F4AA2
:101C90000F4B126830B5D31AB3FA83F30D240D4DF0
:101CA0005B09411E35F913E08C4411F8010F86459C
:101CB00006D093699B06FCD461451060F5D130BD18
:101CC00093699D06FCD41460F3E77047341E00202E
:101CD00000800740301E0020224BB1F1000C10B4F0
:101CE0001C682EDD034600201F4A591E12689369A6
:101CF000DB0617D401309369DB06FCD413688445F6
:101D000001F8013FF3D14CB150211346916353F8D0
:101D1000342F02F0380203F580531A6060465DF8F4
:101D2000044B70474CB150211346916353F8342F44
:101D300002F0380203F580531A6078B15DF8044B65
:101D400070475CB1084B50211A681346916353F8F1
:101D5000342F02F0380203F580531A606FF002004E
:101D6000DDE700BF5C190020341E0020054B1B6816
:101D700033B10021044A054812680068916318478E
:101D8000704700BF5C190020341E00206419002039
:101D9000024B1A6893691B07FCD47047341E00205D
:101DA000F8B51C4F1C4D3A681C4EAA4214BF2125A1
:101DB00022250446D6F800C018B1BCF1000F10D09F
:101DC000F8BDBCF1000FFBD0014690632846FEF73A
:101DD0006DFB28461249FEF7D1FC124B34601C60A3
:101DE000F8BD0B460F4A0E49306028461360FEF7D7
:101DF000A1FB01212846FEF759FB3A685021134602
:101E0000916353F8342F02F0380203F580531A60BF
:101E1000F8BD00BF341E0020008007405C19002080
:101E20006D1D00106419002010B50E490E4C0F48AE
:101E30000F4A104B007821600020022112781B7895
:101E4000FEF71EFA02210120FEF71AFA4FF4E131E3
:101E50002068FFF7B5FABDE8104001210648FFF7FA
:101E600097BE00BF00000740341E00201C4C00102D
:101E7000184C0010144C0010AC0E0020704700BF2E
:101E80000022014B1A7070474D1E00204B79FF2B2A
:101E90000BD1887948B9CB79012B07D1082A05D90C
:101EA000034B8A7809201A7070470020704700BFE2
:101EB0004D1E002001207047012901D001207047EC
:101EC00008B5104B91881B78994201D0002008BDBD
:101ED0005378012B08D0022BF8D100216422084648
:101EE000FFF7A4FB012008BD5188CB0548BF480A75
:101EF000C1F3402258BF4FF0FF3001F07F01FFF7E0
:101F000013FC00BF4D1E002000487047004B00101E
:101F1000012907D15378012B02D19388072B03D0D5
:101F200000207047012070471146A623014A01F0A6
:101F300027BA00BF584A00100346012201481A7010
:101F4000704700BF384A001008B50B68B3F5966FAC
:101F500000D008BD00224FF0FF301146FFF7E4FB30
:101F6000024A034B10601960704700BF60190020DF
:101F700068190020184B70B51A68002A28D0EFF3B2
:101F8000108172B6D2E8CF4F0120002CFAD1C2E8FE
:101F9000440F002CF6D1BFF35F8F00220F4C18685E
:101FA00059602270C0E88F2F81F31088002400252B
:101FB0000B4E3078FEF790FA20B900240025204619
:101FC000294670BD3078FEF797FA2046294670BD45
:101FD0004FF47A740025EBE7F41D00204F1E00201B
:101FE0004E1E0020014B1878FEF786BA4E1E0020C8
:101FF00038B5044600200D4601F0E6FAA8B30020EB
:1020000001F0F8FA88B3FFF791F94FF0FF3E6FF057
:10201000004C174A821841F1000396457CEB0301FE
:102020003CBF72466346134802F0DAFBE8B1002079
:1020300001F0CAFA58B900214FF0FF3000F0F8FC67
:102040006FF002040B4802F0BFFB204638BD0020B1
:1020500001F0D0FA0028EED021462A46002001F0F7
:10206000D5FA04460028EDD1EAE76FF00204ECE768
:1020700040420F00281E002008B5FFF757F94FF027
:10208000FF3E6FF0004C0F4A821841F10003964565
:102090007CEB03013CBF724663460B4802F0A0FB99
:1020A00070B14FF0FF30002100F0C2FC002001F0C1
:1020B000F3FA0028F5D1BDE80840034802F084BBDC
:1020C00008BD00BF40420F00281E00202DE9F84344
:1020D00080460F46FFF72AF94FF0FF356FF00044B6
:1020E000334A821841F10003954274EB03013CBF6F
:1020F0002A4623462F4802F073FB08B9BDE8F8834F
:10210000002001F061FA002847D0002F40DD0025B3
:10211000DFF8A890284E13E02246002001F002FBD1
:10212000002104464FF0FF3000F082FC002001F057
:10213000B3FAFFF7FBF8C9E900012544AF4227DDF8
:10214000002001F00FFB7C1B8442A8BF044608EB73
:102150000501002CE0D121464FF0FF3000F068FC73
:10216000204601F099FA204601F02EFA80B120466F
:1021700001F0F8FA0028E1D1FFF7D8F8D9F80030DB
:10218000D9F804209B1942F1000283428A41D5D23A
:102190000848BDE8F84302F017BB00200021074BB8
:1021A000C3E90001BDE8F843024802F00DBB00BFDF
:1021B00040420F00281E002020A1070088100020A8
:1021C00030B5002185B02E4802F012FBF0B92D4B3E
:1021D0001A68CAB1EFF3108172B6D2E8CF5F01245A
:1021E000002DFAD1C2E8454F002DF6D1BFF35F8F25
:1021F000254C1D6822785960D3B201222270C5E8AF
:102200008F0F81F31088CBB105B030BD00214FF0A6
:10221000FF3000F00DFC002001F0ECF904461848F6
:1022200002F0D2FA002CEFD0184B1B68002BEBD039
:10223000174A106805B0BDE830401847FEF768FE41
:102240000446FFF773F84FF0FF3C6FF0004510F5C0
:102250007A7241F10003944575EB030138BF2B46B8
:102260004FF000014FF0010520460A4C38BF62468E
:10227000CDE901150094FEF74FFE05B030BD00BF5B
:10228000281E0020F41D00204F1E00206019002091
:1022900068190020751F00104FF0504330B585B00D
:1022A0001C68FEF735FEFEF749FFA04202D0002071
:1022B00005B030BD294B1B7801F022FD284803688A
:1022C000002B47D00120FEF7B1FB0346254C2649E1
:1022D000C0B22370FEF72EF920780121FEF7E6F850
:1022E0000E20FEF715F940BB204B0125C3E9000085
:1022F000FEF70EFE0446FFF719F84FF0FF3E6FF0B1
:10230000004C10F57A7241F1000396457CEB030115
:102310004FF000012046164C3CBF72466346CDE9A3
:1023200001150094FEF7F8FD0028C0DB01211148DB
:10233000FFF72EFC012005B030BD0120FEF772F83A
:1023400001460A48FEF7CEFB00220E200A49FEF79E
:1023500021F9EBE7FEF7AAFBB4E700BF204C001021
:10236000281E00204E1E0020C1210010F41D002058
:10237000751F0010C40E0020E51F001000487047B4
:102380009C4B001000487047484B001038B5184B64
:1023900004461A780AB344B940F209424FF4417333
:1023A000144D6A8013482B8038BD052C1DD8124B64
:1023B000104D53F8241028460023013903E0132B55
:1023C00020F8022F0ED011F8012F0133DBB2002AC2
:1023D000F5D15B0043F44073E4E71121184600F0A7
:1023E00025F8D8E74FF44A73DCE7002038BD00BF7A
:1023F000381E00209C190020304B001000B545F21B
:1024000047308BB0FFF784F901220346092101A868
:102410009847DDE90332044912BA1BBAC1E9002327
:102420000BB05DF804FB00BF1C1E0020012901F168
:10243000FF3300F0B3805D490A784FEA121C9F2AEF
:102440008CBF0CF1370C0CF1300C012B80F800C064
:1024500000F0A78002F00F02092A8CBF3732303219
:10246000022B427000F09D804A784FEA121C9F2A8E
:102470008CBF0CF1370C0CF1300C032B80F802C030
:1024800000F08F8002F00F02092A8CBF3732303201
:10249000042BC27000F085808A784FEA121C9F2AB4
:1024A0008CBF0CF1370C0CF1300C052B80F804C0FC
:1024B00077D002F00F02092A8CBF37323032062B58
:1024C00042716ED0CA784FEA121C9F2A8CBF0CF161
:1024D000370C0CF1300C072B80F806C061D002F0ED
:1024E0000F02092A8CBF37323032082BC27158D004
:1024F0000A794FEA121C9F2A8CBF0CF1370C0CF1A1
:10250000300C092B80F808C04BD002F00F02092ACA
:102510008CBF373230320A2B427242D04A794FEAAE
:10252000121C9F2A8CBF0CF1370C0CF1300C0B2BBA
:1025300080F80AC035D002F00F02092A8CBF37326A
:1025400030320C2BC2722CD08A794FEA121C9F2A8F
:102550008CBF0CF1370C0CF1300C0D2B80F80CC03B
:102560001FD002F00F02092A8CBF373230320E2BF7
:10257000427316D0CA7911099F2A8CBF3731303186
:102580000F2B81730DD002F00F02092A94BF303255
:102590003732102BC27318BF103002D000230370E3
:1025A0007047184400230370704700BF1C1E0020B2
:1025B00070B500F025F90C234025194CFF22A367C4
:1025C0000E201849FDF7E6FF00212A46164801F0C3
:1025D00097FF0126002380211348144A418482601A
:1025E0004360467005830587136042F8043C80F819
:1025F000213080F83B3043620D4BC360C362803BA7
:10260000836202F0D5F84FF000504FF48032094950
:10261000094B2664E064C4F89010DA6470BD00BF12
:1026200000001150A1030020D01900208400105098
:102630000001105010D001000020115001210E2087
:10264000FDF734BF00220248114600F0F9B800BF80
:10265000F0190020044B197021B14FF40032034BE4
:10266000C3F89020704700BF4A1E00200020115080
:102670000B785B0602D14B78052B00D070474B8856
:10268000014ADBB213607047000011504FF0000C9C
:102690002DE9F0418878CF788B8800F07F01324DAA
:1026A0004E0006EBD01205EB4212C4099070C7F33E
:1026B0000100D076C3F30A0384F0010082F803C05E
:1026C0001383507007F00307CA0084BB2748043205
:1026D00005EB811E02EB0008CEF8088042F800C02E
:1026E00071B3234AC9000A44CEF8042021483F337D
:1026F000016823F03F03022F1F4A08BF5B000B4411
:10270000036081EA02085340321905EB4212B3F527
:10271000805FD16025D8264405EB46156B6848EAF2
:10272000876242F0004201201A60BDE8F0810F4844
:1027300005EB811E0244CEF8282040F831C041B993
:1027400000230E4A05EB44140120E2606360BDE8FB
:10275000F081C90001F1A04101F58011CEF82410EB
:10276000C4E7FFF71FF8D6E7D0190020800010500B
:1027700004001050D81D002000001050000110501F
:1027800002F016B88C4608B5114607481A460CF0F8
:102790007F034FEADC1C0CEB430C00EB4C1000F009
:1027A0004FF8012008BD00BFD019002011F07F02B2
:1027B00005D100290CBF02200120064B9866C909EB
:1027C000054B01EB420003EB40104FF40062002187
:1027D00002F002B800201150D019002011F07F0340
:1027E00000D17047002205485B0003EBD11300EBDA
:1027F00043106FF40061C27001F0EEBFD0190020E9
:102800004FF0805209480A4908B50A4B02600A6035
:102810009968C94311F08051FAD14FF480520648AB
:1028200001F06EFE0922054B5A6708BD00200240E8
:102830000030024000000240000010500000115023
:1028400000234FF0010C10B580F81AC08282C382B9
:102850000161044601F0BCFF20B14FF40032074B88
:10286000C3F89020204601F0BFFF10B10123237769
:1028700010BD2046BDE8104001F0A2BF002011505D
:102880002DE9F04100241D4E054623463278DFF83D
:1028900078801B4F0DE03B6813EB441324D0DB68BA
:1028A0002846984732780134E4B2511CA1422346AD
:1028B00006DBA242A3EB0203EDD808EB4313EEE7DD
:1028C000542200210F4801F01BFE4FF0FF330D484A
:1028D0002022041D4360C4E90133E360FF21BDE809
:1028E000F041143001F00CBE4FF0E023D3F8F03D7E
:1028F000DB0700D500BEBDE8F08100BF491E002007
:102900002812002074150020B04B0010704700BF43
:10291000704700BF0020704700207047704700BF1D
:10292000704700BF704700BF704700BF024B587828
:10293000003818BF0120704774150020024B18782A
:10294000C0F38000704700BF741500202DE9F843E4
:102950002B4F3B78FF2B02D00120BDE8F8830021EC
:1029600054220646274801F0CBFD0022264C274B77
:1029700020461A70FEF79AF8254B26481C60264C14
:10298000FEF7A2F8204601F07BFD244A244B146098
:1029900023B12448FFF7D0FA234B18600024214DBF
:1029A00023462A78DFF88490DFF87C800EE0D8F8A0
:1029B000003013EB441311D05B687BB198472A7841
:1029C0000134E4B2511CA142234610DBA242EED8EE
:1029D0009B1A09EB43135B68002BEFD14FF0E02308
:1029E000D3F8F03DDB0700D500BE0020B5E7304648
:1029F0003E70FFF7DDFD3046FFF720FEACE700BF7D
:102A0000F80E0020741500202C1500204B1E00200D
:102A1000C8150020F00E0020DC0E0020CC15002090
:102A2000391F0010491E002028120020B04B001052
:102A30002DE9F04FDFF8C8928BB099F80030FF2BEA
:102A400000F0F180A84CA94DDFF8B0A2DFF8B4B2D5
:102A500026687369EFF3108272B6D3E8CF0F0121B5
:102A60000028FAD1C3E8401F0028F6D1BFF35F8FDA
:102A7000B261304607A901F04DFB00237269C2E83C
:102A80008F3FB36983F31088002800F0CC809DF855
:102A90001D30013B072B00F27D83DFE803F0A7B177
:102AA000959D8E350A04089B002BD1D00998984734
:102AB000CEE79DF8201001F07F0605EB460000EB05
:102AC000D11090F8343023F0010380F8343090F8BE
:102AD000343023F0040380F83430002E00F0A68058
:102AE000037D9AF80020934280F09380804A126818
:102AF00012EB431300F090809E699DF82120099B02
:102B00009DF81C00B047A3E79BF80030002B00F0B5
:102B100083809BF80030013BDBB28BF800309BF8E0
:102B2000003003F0FF00002B92D1704F9DF81C8005
:102B30003B7843F001033B7097F8343060F30003B7
:102B400087F8343097F8343060F3820387F83430F4
:102B500097F8353060F3000387F8353097F8353053
:102B600060F3820387F8353000F06CFC9DF820306C
:102B700003F06002602A6CD0402A7CD003F01F036F
:102B8000012B00F0C180022B00F08180002B60D16E
:102B9000202A00F0E981002A5BD19DF82130092B21
:102BA00057D8DFE813F0B001A2015600C10156006A
:102BB00095016B0156006001F4002B78D9077FF571
:102BC00047AFFFF7B1FE43E7EB78DA077FF540AF99
:102BD0000898FFF79DFE3BE72B78D8077FF538AFC5
:102BE0002878C0F3C000FFF79DFE31E79DF81C0078
:102BF000FFF746FE00F01CFC9DF82030AB7027E785
:102C00009DF81C00FFF73CFE00F012FCFFF788FE69
:102C10001EE7501C984211DA4FF0E023D3F8F03D44
:102C2000DC0700D500BE0BB0BDE8F08F099B9DF816
:102C300021209DF81C0000F019FC09E79B1A2D4A81
:102C400002EB431358E7FFF79DFB0246002840F0D4
:102C500082814FF0E023D3F8F03DDE0700D500BEBF
:102C60009DF81C000021FFF7A1FD80219DF81C00AC
:102C7000FFF79CFDECE6204800F0E4FB0121404614
:102C800008AAFFF745F900287FF4E2AEE8E79DF8CF
:102C9000241011F0700FDCD101F07F0607EB460025
:102CA000164B00EBD1101B78007D76000196984200
:102CB0004FEAD116009659D35E1C8642C0F2668157
:102CC000C01A0C4B03EB4016002A00F063817069B8
:102CD00000F0B8FB01214046736908AA9847002814
:102CE0007FF4B6AEBCE700BFCC1500207415002001
:102CF00028120020B04B0010111F0010491E0020A8
:102D0000F80E00204B1E00209DF824300F2BA7D872
:102D1000AE4A3B441B791278934232D3511C9942FC
:102D20009EDBAB4E9B1A06EB4316706900F08AFBE4
:102D300001214046736908AA984700287FF488AEAD
:102D40009DF8203013F060068AD19DF821300A3BAF
:102D5000012B85D800F076FB9DF821300A2B00F07E
:102D6000F281404608A900F0F1FA71E6994B1B6820
:102D700003EB4016002A00F00D81002E3FF470AFE7
:102D8000A5E7944A166816EB4316CED168E77B7820
:102D90009DF822609E4200F04F817B78002B40F02E
:102DA000BE817E70002E00F04581701EC0B2FFF71C
:102DB000E9FA0346002800F05F814278022A40F0D9
:102DC0005B81C17903F10906C1F340121201C1F31D
:102DD000801142EA41123146387820F03000024337
:102DE0003A705A88CDF80C809A180192019B8B4258
:102DF00040F2A4814A780B2A00F0AF810123042A13
:102E000040F03A810026019A0096521A92B202923C
:102E10006E4A049312781DE06E4B1B6813EB461844
:102E200000F02A81029AD8F810300398059198474B
:102E300008280246059906F1010303D90298904239
:102E400080F0FF80DEB2614B00961A78531C9E42E0
:102E500000F31281009BB242A3EB0202DCD85C4B70
:102E600003EB4218DEE77B7840468DF81A300DF10F
:102E70001A02012308A900F083FAE9E5BDF822004F
:102E8000030A013B020AC0B20E2B3FF6E9AE01A1D4
:102E900051F823F0A9300010452F0010E530001044
:102EA000612C0010612C0010C7300010452F00105D
:102EB000612C0010612C0010612C0010612C00109E
:102EC000612C0010612C0010612C00109B30001050
:102ED00008A800F0BDFA40469DF82210FFF7B2FBAB
:102EE0003B7843F002033B70B2E5BDF82230012B82
:102EF0007FF4B6AE3B78404623F0080308A93B7048
:102F000000F024FAA4E540463B789A0802F0020259
:102F1000C3F340131343ADF81A300DF11A02022324
:102F200008A900F02DFA93E5BDF82230012B7FF4BB
:102F300097AE3B78404643F0080308A93B7000F089
:102F400005FA85E5022A3FF47EAEFFF7E5FC02466E
:102F500000283FF485AE4046538808A900F010FAD7
:102F600000287FF475AD7BE69DF824300F2B3FF6EB
:102F700077AE164A3B441B79127893421DD2154A0C
:102F8000166816EB43167FF4A2AE69E6002A7FF4BA
:102F900067AE00269DF8212002F0FD03012B1BD017
:102FA000002A7FF456AE019B009A3B44134493F8E9
:102FB00034304046C3F34003ADE7511C9942FFF65D
:102FC0004FAE034E9B1A06EB431680E6491E0020C7
:102FD000B04B001028120020BDF82230B3B9012AEE
:102FE00099F8000000F08680FFF7E0FB019B009A53
:102FF0003B44134493F8342042F0020283F8342017
:1030000093F8342042F0010283F83420002E3FF47C
:103010001FAD706900F016FA7369012108AA4046D5
:103020009847002000F00EFA97F83530DF073FF59B
:103030000FAD96E6FFF774FC404608A900F086F94C
:1030400006E5049B012B00F09E80002B00F08A8097
:10305000002091F8028005E08CF804605FFA80FCA3
:1030600063457FD908EB000C57FA8CFC9CF804E010
:103070000130BEF1FF0FEFD04FF0E023D3F8F03D69
:10308000DA0700D500BE4FF0E023D3F8F03DDB07B0
:1030900000D500BE00237B70E2E5FEF735FF024657
:1030A00000287FF458AFDBE5FFF768F902460028F7
:1030B0003FF4CFAD4046122308A900F061F9002883
:1030C0007FF4C6ACCCE5FFF725FC024600283FF4B0
:1030D000C7AD4046137808A900F052F900287FF4E4
:1030E000B7ACBDE5BDF82410FFF750F90246002843
:1030F000EFD1B5E50293FFF771FB019A009B3A44CB
:103100001A4492F83410029B63F3410182F83410A0
:1031100092F8341063F3000182F8341076E700214E
:103120004046FFF797FA4046FFF72AFBBB78404638
:103130000093FFF7A5FB009BBB7032E6DDF80C8027
:10314000FFF7ECFB78E74046012308A90DF11A02CE
:103150008DF81A6000F014F97AE40A78CB781144FB
:103160004A784CE6334610480492029100F04CFE37
:103170000E4B049A02991B781144009A0133934232
:10318000BFF634AE78E7D8F810C00948844508BFC8
:1031900002235DE74FF0E023D3F8F03DDB077FF536
:1031A00057AC00BE54E400BF88150020491E002023
:1031B000713800102DE9F84F0A9F002A40D00C46C4
:1031C0001E4615464FF0000ADFF87C90DFF87C8041
:1031D00018E0204698F8021099F800B000F0E4FDDD
:1031E000E0B121465846FFF751FAF0B1A2780AF152
:1031F000010AD10916BF0B9B3A701A702278AA45B2
:1032000014441DD06278052A0FD1E17801F0030142
:10321000B1420AD1A27812F0700FDAD04FF0E02359
:10322000D3F8F03DDA0700D500BE4FF0E023D3F825
:10323000F03DDB0702D40020BDE8F88F00BEFAE7BE
:103240000120BDE8F88F00BFF80E002074150020A3
:1032500038B58B7813F0700F08D04FF0E023D3F817
:10326000F03DDB0700D500BE002038BD074A084B03
:103270000C46084691781D7800F096FD0028ECD0A9
:1032800021462846BDE83840FFF700BA74150020F3
:10329000F80E00200B46064A06481168DA09343257
:1032A00003F07F0302EB4303184400F037BD00BF77
:1032B000C8150020741500200B46064A0648116800
:1032C000DA09343203F07F0302EB4303184400F0C1
:1032D0004FBD00BFC81500207415002010B5194857
:1032E00001F07F0C00EB4C0000EBD11090F834C0E3
:1032F0001CF0010F08D04FF0E023D3F8F03DDA07BF
:1033000000D500BE002010BD00F1300494F804C0C8
:103310000D484CF0010C007884F804C0FFF732FA35
:103320000028F0D14FF0E021227960F300022271F1
:10333000227960F382022271D1F8F03DDB07E1D5FA
:1033400000BEDFE774150020F80E002030B50B4CEE
:103350008C46A6460546086849680023AEE8030087
:103360009CF800102846C943C4E90233BDE8304048
:103370001A4601F08001FFF7B1BF00BFF81400202A
:103380002DE9F041284F4FF00008BE468C46064616
:1033900008684968BA60AEE80300A7F80E801546D1
:1033A000BCF80620934228BF1346BB819AB11C4645
:1033B00033B3DDB197F90030402C28BF4024002BF7
:1033C00029DB414623463046184AFFF787FF68B19C
:1033D0000120BDE8F0819CF800101346C943304637
:1033E00001F08001FFF77AFF0028F1D14FF0E023D0
:1033F000D3F8F03DDB0700D500BE0020BDE8F0812A
:103400001A46397801F0800123463046FFF766FFFF
:103410000028DDD1EAE722462946044801F0D6F823
:103420008021024AF0E700BFF81400203415002084
:103430000022034BC3E90022C3E902221A6170474C
:10344000F8140020014B1861704700BFF8140020E9
:1034500030B40246044C0025234600685168C4E994
:10346000025530BC03C37047F814002070B53D4CC2
:10347000C90922780646B1EBD21F1D4682B017D08B
:1034800053B14FF0E023D3F8F03DDB0702D4002026
:1034900002B070BD00BEFAE72146FFF7E9F82369E4
:1034A0001BB12246032130469847012002B070BD6F
:1034B00094F90030002B06DBA0680028E7D02A46EC
:1034C000294901F083F8E089A168E388284480B2A3
:1034D00029448342E081A16016D03F2D14D9A289EE
:1034E00094F90040131A9BB2402B28BF4023002CB4
:1034F00027DB90424FF0000131D01B4A3046FFF7E6
:10350000EDFE0028D1D1BCE7236923B1022130466A
:10351000144A984760B121780023C94330461A46BF
:1035200001F08001FFF7DAFE0028AAD00120BDE7F4
:1035300001463046FFF73AF980213046FFF736F969
:10354000B3E7904208D01A460748019301F03EF8CD
:103550008021054A019BD1E780210022CEE70A465F
:10356000CCE700BFF81400203415002070B50446E5
:10357000FFF7DCF900B970BDFFF7E0F90546002858
:10358000F9D1E378002BF6D004F11006304600F0B4
:10359000AFFD3F28EFD92846E178FFF77BFE0028F2
:1035A000E9D0304600F0A4FD3F28E17807D928464D
:1035B00004F512724023BDE87040FFF78FBE284625
:1035C000BDE87040FFF778BE10B50446FFF7AEF9CE
:1035D00008B9002010BDFFF7B1F90028F9D14FF468
:1035E0003272034B02FB0433187900F0010010BD66
:1035F000301200204FF4327208B5034B02FB00304A
:1036000000F05CFD08BD00BF401200202DE9F8432A
:103610004FF6FF744FF43273A24228BF224603FBD9
:1036200000F41C4F04F110053D44284692B200F00E
:10363000BBFD0646FFF77AF910B93046BDE8F883BE
:10364000FFF77CF980460028F7D107EB040999F8C9
:103650000330002BF1D0284600F04AFD3F28ECD97A
:10366000404699F80310FFF715FE0028E5D02846DC
:1036700000F03EFD3F2899F8031007D904F51272B7
:10368000404640233A44FFF729FED6E74046FFF77D
:1036900013FED2E7301200202DE9F0410446FFF777
:1036A00045F910B90020BDE8F081FFF747F906465B
:1036B0000028F7D14FF4327303FB04F4184F04F1E0
:1036C00024053D44284600F0F9FC0028EAD007EB29
:1036D0000408304698F80210FFF7DCFD0028E1D01E
:1036E00004F522743C4428462146402200F05CFD4B
:1036F00098F80210054668B1034622463046FFF7A7
:10370000EDFD50B94FF0E023D3F8F03DDB07C9D50C
:1037100000BEC7E7FFF7D0FDC4E72846C3E700BFF8
:103720003012002038B54FF6FF754FF43273AA42BD
:1037300028BF2A460A4C92B203FB004405462046A5
:1037400000F0F0FD034620461C4600F0B7FC3F2881
:1037500001D8204638BD2846FFF79EFF204638BDD9
:10376000541200204FF4327208B5034B02FB0030B4
:1037700000F0BEFC08BD00BF54120020F0B50024CC
:1037800083B04FF432720021184800F0B9FEFF23D5
:103790004FF4E1310822164804701448009407469B
:1037A00043718160827300F1380101234FF480720C
:1037B000103000F053FC01234FF4807207F59C7128
:1037C000009307F50E7607F1240000F047FC07F59B
:1037D00010753046FDF76AF92846FDF767F9C7E925
:1037E0000746C7E90C5403B0F0BD00BF30120020FB
:1037F0002C1200200A4A116B136A61B13BB10023FD
:10380000C2E90C33D3610023136201207047012009
:10381000C2E90C337047002BF7D0D161F3E700BF4A
:1038200030120020002210B50E4C0F4823780260A1
:103830000271DA0707D59B070BD5BDE810400121BF
:103840000A4800F039BE103000F01AFE23789B07BA
:10385000F3D4064800F014FEBDE8104001210348EF
:1038600000F02ABE2C12002030120020541200203A
:10387000F0B54B7983B0022B24D18B79022B21D167
:10388000284FBB78BBB98B7806463B700B78CC18B9
:103890006178242908BF092507D03FE023781C441C
:1038A00061782B4424299DB210D1AA42F6D21D483A
:1038B000FFF75CFE07E04FF0E023D3F8F03DDB07B5
:1038C00000D500BE0025284603B0F0BD0B460529F3
:1038D00016D0042BEBD163790A2BE8D1124B277851
:1038E000019301330093022330461A46E119FFF792
:1038F00061FC0028DFD00E3517FA85F5ADB2D6E7AA
:1039000021463046FFF7A4FC0028D4D0A3787B7072
:1039100023785A191C44637895B2DAE70B460925D7
:10392000D5E700BF3012002032120020137803F0D8
:103930006003202B0ED170B5274C938894F800C0FB
:103940009C4509D15378203B032B05D8DFE803F0D1
:103950000C18200600207047002070BD01292ED0D1
:10396000032930D0012070BD01290BD00329F9D1E2
:103970001A4B002BF6D000201949FEF7E5FAF1E7C3
:103980000129EFD111460723154AFFF7F9FCE9E7B2
:10399000012914D00329E5D15588124805F0010604
:1039A00086F00101257100F087FD0F4B002BD9D067
:1039B00031460020C5F34002AFF30080D2E7114644
:1039C000FFF7C4FCCEE7094B002BCBD00020518879
:1039D000AFF30080C6E700BF30120020491F00107F
:1039E00038120020541200200000000000000000E7
:1039F0002DE9F843354E0C46F27807468A421D46BB
:103A00003DD0B3788B4212D04FF0E023D3F8F03D95
:103A1000DB0732D40020BDE8F8832D4B23B12D48BD
:103A200000F05CFB00284ED02848FFF79FFDB378DC
:103A3000A34201D00120EEE7274B13B10020AFF3E2
:103A400000800020FFF728FE0028F3D1234800F073
:103A500035FB0028EED1002DECD015F03F05E9D163
:103A60003846B178FFF716FC0028E3D02B462A46EB
:103A70003846B178FFF732FCDCE700BECAE79AB2FD
:103A800006F5127106F1100000F04CFC144B002BEF
:103A9000C3D07379FF2BC0D0002DBED006F24728CB
:103AA00008EB050902E0C845B7D0737918F8012F73
:103AB0009A42F8D1074800F011FB0028F3D1717940
:103AC000AFF30080EFE7AFF30080ADE730120020E6
:103AD00000000000401200200000000054120020EE
:103AE0000000000070B54FF4337284B00021134819
:103AF00000F006FD1148002340254FF4807406466F
:103B0000021D029200F5E6721946CDE900240395E4
:103B10001A4600F5D47000F0A3F93046002306F1F0
:103B20004401A830CDE90215009001221946019404
:103B300006F1840000F094F904B070BD90160020E6
:103B400008B5054800F0B8F9034BA3F5927000F0F2
:103B5000B3F9012008BD00BF38180020002310B5BC
:103B6000054C04F5D870237000F08AFC04F18C0039
:103B7000BDE8104000F084BC901600202DE9F84309
:103B80004B79FF2B51D1374E96F8A931002B4CD1F0
:103B900096F88580B8F1000F47D18B780C78337098
:103BA0000B790F460C44ABB38146A51803E0A54240
:103BB00030D923781C446378052BF8D1AC4229D244
:103BC00021464846FFF744FB40B3A378DB092FD1D9
:103BD000254800F055FCA37896F8A82186F8A9316D
:103BE000A3884846C3F30A03A3F50073B3FA83F32B
:103BF0005B0963F341021D4986F8A82100F0CAF968
:103C000060B123783A7908F101081C445FFA88F31F
:103C10009A42D0D8E11B88B2BDE8F8834FF0E02388
:103C2000D3F8F03DDB0700D500BE0020BDE8F883E7
:103C30000F4800F025FCA37896F8842086F885309C
:103C4000A3880C49C3F30A03A3F50073B3FA83F303
:103C50005B0963F34102002086F8842000F062F9DA
:103C6000CFE700BF90160020401800203818002031
:103C70001C1700201417002070B51B4C064694F842
:103C8000A9C11D468C4512D094F885308B420CD1C9
:103C9000164B1BB10020A9B2AFF300803046144987
:103CA00000F040F9D0B1012070BD002070BDB4F823
:103CB000B4315BB90F4B23B100200F49AAB2AFF367
:103CC000008030460D4900F065F9ECE7D4F8AC11FE
:103CD000AAB204F5D87000F025FBEBE72A4630467F
:103CE000034900F0EBF8DEE790160020000000002A
:103CF000141700200000000094160020381800203F
:103D000008B50020FEF722FE00B108BD4FF0E02309
:103D1000D3F8F03DDB07F8D500BE08BDF8B5037851
:103D200013F001041AD1037805465A07C3F380073C
:103D300001D52046F8BD0E464FF0FF31304600F069
:103D40003BFD2B7813F001040BD12B785B0709D4D2
:103D50002B78012443F004032B7003E00024204659
:103D6000F8BD3C46304600F02FFD2046F8BD00BFB0
:103D700070B50C4605464FF0FF31204600F01CFDA3
:103D80002B78C3F380065B0708D52B7813F001036B
:103D900011BF00262A7863F382022A70204600F0C1
:103DA00013FD304670BD00BFC378828803F0030066
:103DB0000228C2F30A0215D003280AD001281CD118
:103DC000022940F2FF3308BF4FF4806393420DD3C2
:103DD0007047022914BF40234FF48063934205D3F8
:103DE0000120704702290AD0402AF9D94FF0E02378
:103DF000D3F8F03DDB0700D500BE00207047B2F5D8
:103E0000007FEDD0F2E700BF0A44914226D291F83C
:103E100001C0BCF1050F05D091F800C061448A4291
:103E2000F5D8704700B591F802C00CF07F0E00EB9A
:103E30004E0E4FEADC1C0EF80C3091F800C06144C5
:103E40008A4209D991F801C0BCF1050FEBD091F875
:103E500000C061448A42F5D85DF804FB704700BF9A
:103E60002DE9F0418E4682B0009390F800C0089E84
:103E7000BDF824706EF3000C04461546012331464C
:103E80003A4600F808CBBDF82C8000F0E7F806B100
:103E90003FB901200A9BA4F80280636002B0BDE82C
:103EA000F08104F11C063046FCF700FE0DB13546EA
:103EB0000026C4E90556ECE701207047F8B507462F
:103EC000084640F2FF13154610F8082B0C4612F076
:103ED000020F0CBF3F261E4600F0F0F828B925B1AE
:103EE0002E4202D12378DA0701D50020F8BD3846EA
:103EF0006178FFF7CFF90028F7D0237813F001039A
:103F000007D04FF0E023D3F8F03DDB07EDD500BE3E
:103F1000EBE71A4638466178FFF7E0F90028F0D061
:103F2000F8BD00BF70B501F10805064628460C46ED
:103F300000F0C4F810B12378DA0701D5002070BD75
:103F400030466178FFF7A6F90028F7D02846628846
:103F5000616800F029F92378054603F0010340B1B8
:103F600073B14FF0E023D3F8F03DDB07E6D500BE98
:103F7000E4E7002BE2D130466178FFF79DF9DDE7F9
:103F80000346626830466178FFF7A8F90028E8D058
:103F9000284670BD8A892DE9F0410B780C4606460B
:103FA00022B9DD0734D50020BDE8F08104F108070F
:103FB0009907384647BF4FF47E484FF400754FF6D7
:103FC000C078402500F094F88542ECD82378DA07D1
:103FD000E9D430466178FFF75DF90028E3D0384630
:103FE00000F086F82378854203F001032DD8BBB991
:103FF000658800EA0800854228BF054661785DB300
:1040000062682B463046FFF769F948B12846CBE78E
:104010004978FFF73FF90028C5D02378D80707D59E
:104020004FF0E023D3F8F03DDB07BCD500BEBAE784
:10403000638861783BB162683046FFF74FF900282A
:10404000EED06088B0E71A46F6E7002BABD13046D9
:104050006178FFF731F9A6E72A46D2E72DE9F0416A
:10406000B2F5004F9DF8188024D80446C068174662
:104070000E461D4618B14FF0FF3100F09DFB206940
:1040800018B14FF0FF3100F097FB0022C5F30E038B
:10409000E06843EAC83362812660A780E38022811A
:1040A00008B100F091FB206908B100F08DFB012000
:1040B000BDE8F0810020BDE8F08100BF038942899E
:1040C0009BB292B28088934236BFC2EB40029B1AE9
:1040D0009B189BB2984228BF1846704702894389B3
:1040E00090B29BB2C01AB0FA80F04009704700BF8E
:1040F000038942899BB2808892B2934236BFC2EB59
:1041000040029B1A9B189BB2984286BFC01A80B28D
:104110000020704738B5044600690D4618B14FF0CD
:10412000FF3100F049FB2189638989B29BB2A288E3
:10413000994236BFC3EB4200C81A401880B250B350
:10414000824209D291422CBF891A89188BB29A42B5
:10415000638103D89B1A9BB29A42FBD9E2882168FB
:10416000C2F30E0202FB0311284600F02FFA618908
:10417000012589B24B1C9BB29942A2880ED900231B
:1041800002FA05F15B1A9BB22069638108B100F065
:104190001BFB284638BD054663899BB2B3EB420F33
:1041A0004FEA4201F0DBEDE72DE9F04706460069F2
:1041B0008846914618B14FF0FF3100F0FDFA33897F
:1041C00074899BB2A4B2B588A34236BFC4EB45073D
:1041D0001F1BFF18BFB2002F4AD0BD4240D3B945C4
:1041E00028BFB946A5421FFA89F703D8641BA4B2B9
:1041F000A542FBD9B6F806A02B1B31689BB2CAF3C7
:104200000E029F42924602FB041123D913FB02F3D4
:104210001FFA83F94A4640467D1B00F0D7F9621920
:1042200012FB0AF2316808EB090092B200F0CEF9F5
:104230007289B58892B2D3199BB29A421AD96A0090
:104240009B1A9BB23069738108B100F0BDFA384601
:10425000BDE8F087404607FB02F200F0B7F9E7E758
:10426000AB422CBF5B1B5B199CB22F467481B6E737
:1042700073899BB2B3EB450F4FEA4502E2DBDFE700
:10428000F8B50446C0680E4618B14FF0FF3100F093
:1042900093FA2589238961899BB289B2A2888B42CE
:1042A00036BFC1EB42015B1A5B189BB29A42ADB2BA
:1042B00008D8E779FF0905D1E06808B100F084FA71
:1042C0003846F8BD954228BF2B4618D39B1A9BB29F
:1042D0009342FBD2E2882068C2F30E0202FB030085
:1042E000314600F073F96B1C9BB29D42A28812D933
:1042F000002351005B1A9BB201272381DCE7E2888F
:104300002068C2F30E0205FB0200314600F05EF9A0
:104310000135A288ABB2B3EB420F4FEA4201EBDBAF
:10432000E8E700BF2DE9F04F174683B0002A75D0AB
:104330000646C068894618B14FF0FF3100F03CFADC
:10434000F379B6F808807289DB09B5881FFA88F816
:1043500092B23CD1904536BFC2EB4502A8EB0202B7
:10436000424492B2AA425ED2AA1A92B2BA4228BF7C
:104370003A46B6F806B097B27B1B08EB070ACBF3B8
:104380000E0B9BB21FFA8AFAA845444603D3641B5E
:10439000A4B2AC42FBD22D1B3068ADB2BD420BFBC8
:1043A000040057D349460BFB07F200F00FF9B2881F
:1043B000D0454FEA420302D8BAEB420F03DBAAEB27
:1043C00003031FFA83FA3D46A6F808A02CE0B6F8CE
:1043D00006B0AF42CBF30E0B2FD2904536BFC2EBE7
:1043E0004501A8EB0201414489B2680039447B1BB6
:1043F00081429BB20DDB02EB050A1FFA8AFAAAEB97
:1044000007081FFA88F8424537D9A8EB00001FFAC1
:1044100080F807EB080A1FFA8AFAB5E7154628461E
:1044200003B0BDE8F08F0025F0680028F7D000F059
:10443000CBF9284603B0BDE8F08F002DF4D07F1BE8
:1044400002EB050A0BFB079990462F4600231FFA43
:104450008AFA99E715FB0BF5ADB22A464946019356
:1044600000F0B4F8019B3068E21812FB0BF209EB84
:10447000050192B200F0AAF899E7404584DCC4E750
:1044800010B50446C06818B14FF0FF3100F094F940
:10449000206918B14FF0FF3100F08EF90023E06879
:1044A0006381238108B100F08FF9206908B100F021
:1044B0008BF9012010BD00BF38B50446C0680D4619
:1044C00018B14FF0FF3100F077F9206918B14FF0C3
:1044D000FF3100F071F9E379E06865F3C713E37128
:1044E00008B100F071F9206908B100F06DF9012000
:1044F00038BD00BF002301461A46184600F00AB92D
:10450000830730B546D08418844604E003F8011BC5
:104510009D0704D09C46A4456346F7D130BD013ABF
:104520000244A2EB0C02032A29D9CCB20F2A04EBD5
:10453000042404EB04442FD9A2F1100C03F110055C
:104540002CF00F0CAC44C3E90044C3E9024410331F
:104550006345F8D112F00C0F02F00F0E18D02EF0B8
:10456000030CAEF104051A469C4442F8044B624524
:10457000FBD125F0030404330EF003022344002A88
:10458000CCD0C9B21A4403F8011B9342FBD130BD11
:104590007246F4E70346C6E79646E0E738B5074DAE
:1045A000074C2C1BA41005D0013C55F8043D98473E
:1045B000002CF9D1BDE8384000F0F8B844480010AC
:1045C00044480010704700BF704700BF844641EA6E
:1045D000000313F0030349D1403A23D30B6803606F
:1045E0004B6843608B688360CB68C3600B69036171
:1045F0004B6943618B698361CB69C3610B6A036259
:104600004B6A43628B6A8362CB6AC3620B6B036340
:104610004B6B43638B6B8363CB6BC3634030403125
:10462000403ADBD230320BD30B6803604B684360F7
:104630008B688360CB68C36010301031103AF3D2BE
:104640000C3205D351F8043B40F8043B043AF9D24C
:10465000043208D0D2071CBF11F8013B00F8013B1F
:1046600001D30B8803806046704700BF082A13D32C
:104670008B07B1D010F00303AED0C3F10403D21AFC
:10468000DB071CBF11F8013B00F8013BA4D331F854
:10469000023B20F8023B9FE7043AD9D3013A11F8D4
:1046A000013B00F8013BF9D20B7803704B78437063
:1046B0008B7883706046704720F0030110F0030090
:1046C000C0F1000051F8043B00F1040C4FEACC0C9F
:1046D0006FF000021CBF22FA0CF213434FF0010CE2
:1046E0004CEA0C2C4CEA0C4CA3EB0C0222EA030221
:1046F00012EACC1204BF51F8043B0430F4D0C2F1EA
:10470000000102EA0102B2FA82F2C2F11F0200EBDA
:10471000D20070472DE9F8431C4D064698460F46D7
:1047200028689146FFF74EFF194B1C682CB3286888
:1047300065681F2D24DC4EB96B1C0235636044F89C
:104740002570FFF741FF0020BDE8F88304EB8501E9
:104750000123022EC1F8889003FA05F3D4F88821CA
:1047600042EA0302C4F88821C1F80881E4D1D4F8F0
:104770008C211A43C4F88C21DEE7064C1C60D6E776
:10478000FFF722FF4FF0FF30DEE700BFFC0E0020F6
:104790009010002094100020024B13B10248FFF744
:1047A000A9BE7047000000009D450010F8B500BF8D
:1047B0005FF800F0A90200205FF800F03502002049
:1047C0005FF800F0410B00205FF800F06D02002060
:1047D0005FF800F0A10A00205FF800F0FD0A002059
:1047E0005FF800F0CD0100205FF800F0C90A00205A
:1047F0005FF800F0110100205D180010D1170010C3
:1048000005180010A91800103D18001059170010C5
:104810008518001045170010610A00108918001053
:10482000110E0010A11700107118001021180010AF
:10483000450400106D04001099470010F1010010AC
:04484000FD23001044
:104844000A2A2A2A2050414E4943202A2A2A0A00A9
:104854000A0000004E6F207370696E6C6F636B7397
:104864002061726520617661696C61626C6500002B
:104874004E6F2075736572204952517320617265C1
:1048840020617661696C61626C65000048617264E4
:104894007761726520616C61726D20256420616CA2
:1048A400726561647920636C61696D656400000000
:1048B40048617264206173736572740052656C653B
:1048C40061736500626F6F74325F773235713038AF
:1048D40030000000322E312E300000007069636F0A
:1048E4003200000074657374000000004E6F76207F
:1048F40031352032303235005541525420737464BE
:10490400696E000055415254207374646F757400CD
:104914005541525420737464696E202F207374645B
:104924006F75740055534220737464696E202F2090
:104934007374646F7574000052617370626572728F
:1049440079205069000000005069636F0000000086
:10495400426F6172642043444300000052657365F2
:1049640074000000556E68616E646C656420495281
:104974005120307825780A0065702025303258207F
:1049840077617320616C7265616479206176616915
:104994006C61626C6500000043616E277420636F74
:1049A4006E74696E75652078666572206F6E206915
:1049B4006E61637469766520657020253032580015
:1049C40006005250D3F07542C04800100600525001
:1049D400E182887FC848001006005250ABB3605390
:1049E400D848001006005250BBFF3CB6E048001007
:1049F40006005250861C0302E8480010060052507C
:104A04005422A29DF048001005005250DE65F4685F
:104A1400305A00100D0A00000600525053B4F4A19D
:104A240014490010080052501200000008005250AF
:104A340092100000000000007D1E00100000000025
:104A4400811E00108D1E0010B91E0010B51E00102E
:104A5400000000000A00000000000306A600080091
:104A6400020002009C001400030057494E555342B3
:104A740000000000000000000000800004000100AD
:104A84002800440065007600690063006500490061
:104A94006E007400650072006600610063006500CA
:104AA400470055004900440000004E007B006200AE
:104AB40063003700330039003800630031002D00F3
:104AC40037003300630064002D003400630062008B
:104AD40037002D0039003800620038002D003900FD
:104AE4003100330061003800660063006100370064
:104AF4006200660036007D0000000000050F210002
:104B0400011C100500DF60DDD88945C74C9CD265C7
:104B14009D9E648A9F00000306A600010000000019
:104B24000600525053B4F4A12849001000000000BC
:104B34003C4900104C490010381E00205449001014
:104B44006049001009025400030100807D080B0035
:104B5400020202000009040000010202000405240C
:104B64000020010524010001042402060524060096
:104B7400010705810308001009040100020A00006E
:104B840000070502024000000705820240000009F8
:104B940004020000FF00010512011002EF020140AF
:104BA4008A2E090000010102030100000000000038
:104BB4007D370010F53700102538001071380010CB
:104BC4002D390010F1390010000000000000000031
:104BD400E53A0010413B00105D3B00107D3B0010A6
:0C4BE400111F0010793C001000000000C0
:084BF000DCF9FF7F0100000069
:104BF800C4490010D0490010DC490010E8490010F1
:104C0800F4490010004A00100C4A0010304A001005
:0C4C1800284A00101C4A0010244B001019
:104C2400034600B50268EFF3108C72B6D2E8CFEFFA
:104C34000120BEF1000FF9D1C2E84E0FBEF1000F02
:104C4400F4D1BFF35F8F93F90420002A0ADB01B18A
:104C54000A60002000221B68C3E88F2F8CF31088A1
:104C64005DF804FB4FF05042126801201A71F1E71D
:104C74004FF050412DE9F0410027044616461D46E9
:104C8400D1F8008008E0C1E88F7F8CF310883046AB
:104C9400294600F045FEE8B92168EFF3108C72B69E
:104CA400D1E8CF2F0123002AFAD1C1E8423F002ADC
:104CB400F6D1BFF35F8F94F904302168002BE2DA58
:104CC400002384F80480C1E88F3F8CF3108801200E
:104CD400BDE8F0810020BDE8F08100BF30B5046874
:104CE400EFF3108C72B6D4E8CFEF0125BEF1000FBC
:104CF400F9D1C4E84E5FBEF1000FF4D1BFF35F8F6A
:104D040090F904400568002C10DB0021C5E88F1FD2
:104D14008CF310884FF0504595F90050A54201D10D
:104D2400084630BDBDE83040FFF7A2BF4FF0504207
:104D3400126800230271C5E88F3F8CF310880120AC
:104D440030BD00BF70B505460C4600F0EDFD0246CF
:104D54000B464FF47A704FF0FF3E6FF0004CE4FBCB
:104D6400002396457CEB030138BF72462846BDE814
:104D7400704038BF6346FFF77BBF00BF0368EFF3A3
:104D8400108272B6D3E8CFCF0121BCF1000FF9D164
:104D9400C3E84C1FBCF1000FF4D1BFF35F8F4FF099
:104DA400FF0C0023016880F804C0C1E88F3F82F340
:104DB400108840BF704700BF002108B5134B4FF463
:104DC400707299601248D960196159619961D96109
:104DD400196259629962D962196359639963D963F3
:104DE400196459649964D964196559659965D965D3
:104DF400196659669966D966196759679967D967B3
:104E040000F08AFD034B044A1A6008BD00001050EC
:104E1400101A0020D81D0020800110502DE9F04FF9
:104E2400204B85B0D3F858A0BAF1000F21D000244C
:104E34000125A146DFF874801B4F01E0202C18D017
:104E44000AEA0502611C2346AB46CCB26D00002A77
:104E5400F4D004F0010203F0FE06164407EB4616F4
:104E64003046C8F858B000F025FC28B93AEA0B0AD5
:104E7400E4D105B0BDE8F08F4FF4E063ADF8043041
:104E8400B378CDF806908DF80830F38A01A8012193
:104E9400ADF80A90039300F02BFC304600F0B0FB11
:104EA400E4E700BF00001150D01900200030115079
:104EB400F0B5BB4B85B0D3F8985015F400367BD0D1
:104EC400B84BB94C996A94F83B30B84A022B11603C
:104ED40000F0EC80002694F87B30022B00F0538124
:104EE40094F8BB30022B00F0958194F8FB30022B30
:104EF40000F0848194F83B31022B00F0738194F824
:104F04007B31022B00F0628194F8BB31022B00F05C
:104F1400CE8194F8FB31022B00F0BE8194F83B3231
:104F2400022B00F0AE8194F87B32022B00F09E81BC
:104F340094F8BB32022B00F08E8194F8FB32022BE2
:104F440000F07E8194F83B33022B00F06E8194F8DC
:104F54007B33022B00F0BC8094F8BB33022B00F0AF
:104F6400B18194F8FB33022B00F0CC803EB9904B16
:104F74001B7823B94FF400328E4BC3F890200022E3
:104F84004FF44074864B01219B6C01A8C3F30A03C0
:104F9400CDF80620CDF80A20ADF80E20ADF8044077
:104FA400029300F0A5FBEA064FF40036824C07D5C5
:104FB400FFF734FF264603E0EA064FF01004F7D467
:104FC400EB0321D5784C46F48036A37E002B40F0C9
:104FD400AA80012394F83A20E370002A40F0BE80AE
:104FE40001234FF4C061754A84F82330019192E89B
:104FF400030004AA02E90300194601A800F078FBA3
:105004004FF400326B4B1A65E90408D46A0421D4C6
:105014002B0435D4AE4240F0D78105B0F0BD002456
:105024005F4B46F480561C60FFF7C6FE4FF4807356
:10503400012101A8ADF80430ADF80E40CDF80640CA
:10504400CDF80A4000F054FB4FF40022594B1A6586
:105054006A04DDD500234FF48062012101A8ADF874
:105064000E30CDF80630CDF80A30ADF8042000F04B
:105074003FFB10224F4B46F480461A652B04C9D5DA
:1050840000234FF4A062012101A8ADF80E30CDF841
:105094000630CDF80A30ADF8042000F029FB4FF4B7
:1050A4000062444B46F400461A65B3E794F83A604C
:1050B400002E3FF410AF94F83C30002B3FF40BAFBC
:1050C400002304F1200084F83C3000F0C1FA02E728
:1050D40094F87A73002F3FF43FAF94F87C33002B9D
:1050E40040F0648194F8BB33022B40F0F48094F8D0
:1050F400BA33002B40F0EB8094F8FB33022B7FF49F
:105104003EAF3E4694F8FA33002B3FF42FAF94F8A9
:10511400FC33002B3FF433AF0023294884F8FC33DD
:1051240000F096FA2BE70221264B1D4A1966536EAE
:105134009F07FCD54FF4405200211B4800F066FA4B
:10514400194800F05DFA02221A4B5A661A660123C6
:1051540094F83A20E370002A3FF442AF194A1366E8
:10516400A2F50052536ED807FCD54FF440520021EB
:10517400154800F04BFA144800F042FA01220D4B96
:105184005A661A662CE794F87A70002F3FF4A8AE9A
:1051940094F87C30002B40F001813E46A0E600BF2D
:1051A4000000115000000B40D0190020C819002045
:1051B4004A1E002000301150100002000000105060
:1051C400B01D002000201150F019002094F87A71CD
:1051D400002F3FF499AE94F87C31002B40F0D68038
:1051E4003E4691E694F83A71002F3FF488AE94F865
:1051F4003C31002B40F0C2803E4680E694F8FA70C1
:10520400002F3FF477AE94F8FC30002B40F08E80F2
:105214003E466FE694F8BA70002F3FF466AE94F8F9
:10522400BC30002B7AD13E465FE694F83A73002FE7
:105234003FF48DAE94F83C33002B57D13E4686E6BE
:1052440094F8FA72002F3FF47DAE94F8FC32002BF0
:105254005CD13E4676E694F8BA72002F3FF46DAE08
:1052640094F8BC32002B49D13E4666E694F87A7233
:10527400002F3FF45DAE94F87C32002B76D13E468D
:1052840056E694F83A72002F3FF44DAE94F83C324F
:10529400002B63D13E4646E694F8FA71002F3FF4A2
:1052A4003DAE94F8FC31002B50D13E4636E694F8DE
:1052B400BA71002F3FF42DAE94F8BC31002B3DD1D0
:1052C4003E4626E694F8BA33002B3FF44AAE94F8EF
:1052D400BC33002B71D194F8FB33022B7FF44FAE17
:1052E40094F8FA33002B3FF44AAE10E70023394810
:1052F40084F83C333E4600F0ABF928E600233648F8
:1053040084F8BC323E4600F0A3F916E60023334885
:1053140084F8FC323E4600F09BF913E60023304843
:1053240084F8BC303E4600F093F9DEE500232D48B6
:1053340084F8FC303E4600F08BF9DBE500232A4874
:1053440084F8BC313E4600F083F9E2E500232748A7
:1053540084F8FC313E4600F07BF9DFE50023244865
:1053640084F83C323E4600F073F9DCE50023214822
:1053740084F87C323E4600F06BF9D9E500231E48E0
:1053840084F83C313E4600F063F9B8E500231B483D
:1053940084F87C313E4600F05BF9B5E500231848FB
:1053A40084F87C303E4600F053F999E50023154813
:1053B40084F87C3300F04CF994E60023124884F816
:1053C400BC3300F045F986E7104886EA050100F091
:1053D400B3FA00BFF01C0020701C0020B01C002099
:1053E400701A0020B01A0020701B0020B01B00208F
:1053F400F01B0020301C0020F01A0020301B00207D
:10540400301A0020301D0020701D00206849001053
:105414002DE9F047848A058BC278A54228BF25462A
:10542400171E18BF0127641B467882F00102A4B23C
:105434000346C270848245F4806040EA4730A6BBCC
:10544400D3E903266F1E02EB811E55B3052F98BFC7
:10545400721C31D902EB811C721CACEB0204022CCD
:105464002AD932464FEA95094FEA890A06EB890898
:1054740052F8044B42454CF8044BF9D15545A7EB7F
:105484000A070EEB0A040AD016F829600EF8296000
:105494002FB15678012F667001D09278A2701E69E0
:1054A4009C8A2E441E6140F400400CB940F48040B4
:1054B40001B10004BDE8F0870EF1FF3E2E4400E088
:1054C400013212F8014CB2420EF8014FF8D1E6E76E
:1054D40083680246186801B1000C5378C0F30900D0
:1054E400002B3CD02DE9F041D2E90334461E03EBF6
:1054F400811E40B3052E3BD989014D1C1D44651BFB
:10550400022D35D97346214600F47F774FEA90087F
:10551400FD1853F804CBAB4241F804CBF9D1B8429F
:10552400A6EB070604EB07030EEB07010AD01EF8EF
:10553400285004F828502EB14C78012E5C7001D00C
:10554400897899701469D38A04440344D382138BF1
:105554001461834284BF00239382BDE8F081D38A1F
:105564000344D382138B834284BF00239382704706
:10557400013C0EEB00011EF8013B714504F8013FAC
:10558400F9D1DFE710B50446836800211B68FFF7F3
:105594009FFF63681B685B0002D5238B834200D0A6
:1055A40010BD2046BDE810400121FFF791BF00BFA8
:1055B400084B1B6C13F0020302D18278D20901D18B
:1055C40000207047C07EA0F10200B0FA80F04009CC
:1055D400704700BF0000115008B5FFF7E9FF50B154
:1055E400054A064B906A1B68A0F54870C01AC62885
:1055F4008CBF0020012008BD00000B40C81900200A
:105604000023C0E904338376704700BF10B5836874
:1056140009B11C68214082B1114352050DD51A68A5
:1056240054050CD4084A21F480641C60126C92075F
:1056340003D40C23033BFDD28368196010BD817829
:10564400024800F079F900BF000011507C490010B5
:1056540030B54368002183B004461D68FFF7D8FEC7
:10566400134B40F48052196CA37889070ED55B065E
:105674000ED025F0A04545F0005500212046636872
:105684001D6003B0BDE83040FFF7C0BFDB09F0D0B8
:10569400A38A002BEDD0012120460192FFF7B8FE2A
:1056A400019A25F00055024345F0A045E5E700BF07
:1056B4000000115038B5857E044695B1FFF762FFAE
:1056C400A38A0BB9284638BD2046FFF785FF20B1D1
:1056D400012323770025284638BD2046FFF7B8FF6D
:1056E400F8E78178014800F027F900BF9C490010D1
:1056F4002DE9F04343788146023B0D4685B0042BE7
:1057040013D8DFE803F0034A6A73440000217B4B9B
:105714001A7822F001021A701A7822F002021A7022
:1057240059701A7861F382021A70754B1C686369A8
:10573400EFF3108272B6D3E8CF0F01210028FAD11B
:10574400C3E8401F0028F6D1BFF35F8FA26149462A
:10575400204600F0EDF800236269C2E88F3FA36998
:1057640083F3108848B94FF0E023D3F8F03DDB070A
:105774000AD500BE05B0BDE8F0832A4699F80110A9
:1057840099F8000000F0DCF805B0BDE8F0835D4A4C
:1057940013780133DBB21370C7E700245A4E234653
:1057A4003178DFF86C81594F11E03B6813EB4413F7
:1057B40007D0DB692BB1D9F8041099F80000984799
:1057C40031780134E4B24A1CA242234617DBA142D9
:1057D400EBD85B1A08EB4313EBE7484B1A78D60770
:1057E400D2D51A7842F004021A709EE7434B1A7815
:1057F400D407C9D51A7822F004021A7095E73F4CF1
:10580400237858073AD4E378DA07BDD50323002672
:105814003B4A99F800101468D9F804208DF8041054
:105824008DF805306369CDF80660CDF80A60ADF8EF
:105834000E600292EFF3108272B6D3E8CF0F01210B
:105844000028FAD1C3E8401F0028F6D1BFF35F8FC8
:105854002046A26101A900F06BF86369C3E88F6F69
:10586400A36983F3108800283FF47DAF2A469DF88E
:1058740005109DF8040000F063F885E723780027FD
:1058840023F00403237005231D4A8DF805301668A0
:1058940099F80020ADF80E708DF804207369CDF8E6
:1058A4000670CDF80A70EFF3108272B6D3E8CF0F0A
:1058B40001210028FAD1C3E8401F0028F6D1BFF324
:1058C4005F8F3046B26101A900F032F87369C3E812
:1058D4008F7FB36983F3108838B94FF0E023D3F88E
:1058E400F03DD9078FD500BE8DE72A469DF80510F7
:1058F4009DF8040000F024F885E700BF741500202B
:10590400CC1500204B1E0020491E00202812002028
:10591400B04B0010000000005FF800F001450010DB
:105924005FF800F01D1200105FF800F02D13001056
:105934005FF800F0814200105FF800F005030010EA
:105944005FF800F00D2900100001020304050607AA
:1059540008090A0B0C0D0E0F1000000000000000D7
:105964000000010000000000000000000000020030
:105974000000000000000000000003000000000020
:10598400000000000000FF000000000001B54868AE
:1059940001318E460047704609380149884701BDE8
:1059A4007109001000000000000000000000000069
:1059B4000000000000000000080F0020891C0010F7
:1059C400911D0010D91C0010A11D00100000000042
:1059D40000010000CD20001079200010F11F0010FC
:1059E400611F00100000000000010000D01500201D
:1059F40010000C0000000000000000000000000087
:105A04000000000000000000FF000000241200203D
:085A140000000000000000008A
:105A1C00D3DEFFFFFE010000FF0100001CA7FFFF0B
:045A2C00793512AB0B
:040000051000014D99
:00000001FF
