:100000000EC020C01FC01EC01DC01CC01BC01AC017
:1000100019C018C017C016C015C014C013C01124D1
:100020001FBECFE5D2E0DEBFCDBF10E0A0E6B0E05E
:10003000ECE7F1E002C005900D92A436B107D9F7C4
:1000400086D09AC0DDCF88B398E0892788BB089511
:10005000BA9AB89AB998C098C298BB9AC3980895AA
:10006000B99A98E080FF0FC0C19AC29A22E02A95FF
:10007000F1F700C0C29822E02A95F1F700C08695FA
:100080009A9581F70895C198F0CFB99820E030E0B3
:1000900080E041E050E0B19B07C0BA01022E01C0F0
:1000A000660F0A94EAF7862BC29A92E09A95F1F7C6
:1000B00000C0C29892E09A95F1F700C02F5F3F4FC1
:1000C0002830310541F70895C09ACADFDEDFC098B5
:1000D0000895BC9AC49A0895C498EFECF0E0319763
:1000E000F1F700C0000020E030E090E0AC01022E0B
:1000F00002C0559547950A94E2F740FF14C0C49A90
:10010000EFECF0E03197F1F700C000002F5F3F4FB8
:100110002830310559F7C49A8FEC90E00197F1F738
:1001200000C000000895C498EBCFCF93DF93EC019B
:100130008991811103C0DF91CF910895CDDFF8CF70
:100140008FEC90E00197F1F700C00000089580DF88
:10015000C0DF81E8B9DF81E8B7DF8F77BDDF80E6F8
:1001600090E0E3DF2FEF80E792E021508040904065
:0C017000E1F700C00000EFCFF894FFCFD3
:04017C000D0A000068
:00000001FF
