:100000000EC020C01FC01EC01DC01CC01BC01AC017
:1000100019C018C017C016C015C014C013C01124D1
:100020001FBECFE5D2E0DEBFCDBF10E0A0E6B0E05E
:10003000E2EEF0E002C005900D92AC38B107D9F7BE
:1000400040D04DC0DDCFB89AC09A0895C098EFEC6B
:10005000F0E03197F1F700C0000020E030E090E0E0
:10006000AC01022E02C0559547950A94E2F740FF75
:1000700014C0C09AEFECF0E03197F1F700C0000037
:100080002F5F3F4F2830310559F7C09A8FEC90E031
:100090000197F1F700C000000895C098EBCFCF930F
:1000A000DF93EC018991811103C0DF91CF91089515
:1000B000CDDFF8CF8FEC90E00197F1F700C00000A2
:1000C0000895C1DF80E690E0EADF2FEF80E792E05D
:1000D000215080409040E1F700C00000F3CFF89439
:0200E000FFCF50
:1000E20048656C6C6F20776F726C642066726F6DFE
:1000F2002074686520415454494E59383520766938
:0C0102006120554152542121210D0A00BA
:00000001FF
